:020000020000FC
:0200000019C025
:040024003DC06EC0AD
:100034000FEF0DBF04E00EBF0FEF07B90FEF08B9C4
:1000440002D07894FFCF0F931F93AF93BF9300E038
:100054000093C50007E60093C40002E00093C000CB
:1000640006E00093C20008E90093C10000E1802E7D
:1000740001E0902E00E0A02E01E0B02EA0E1B1E05E
:10008400C0E0D1E010E100270D9309931A95E1F740
:10009400CC24BF91AF911F910F91089500E008B94E
:1000A4000F931F932F93AF93BF93CF93DF930FB708
:1000B4000F93D501DD20B1F4A030A1F4B13091F457
:1000C4001091C1001F771093C1000091C6000D93D9
:1000D400A03140F4B13030F411961091C00017FFF4
:1000E400FCCFF3CF00E0A02E01E0B02E0F910FBFA4
:1000F400DF91CF91BF91AF912F911F910F911895DF
:100104000F931F930FB70F93AF93BF93CC2069F056
:10011400D4010D910093C600A03220F0B13010F04C
:10012400A0E1B1E04D01CA9429F40091C1000F7D12
:100134000093C100BF91AF910F910FBF1F910F9119
:100144001895EF93FF93AF93BF930F93E4E8F1E017
:10015400D4010591002349F00D93C394A032C8F350
:10016400B130B8F3A0E1B1E0F4CF0091C100006276
:100174000093C1000F91BF91AF91FF91EF9108954A
:0A018400544553542054580D0A004E
:00000001FF
