:020000020000FC
:100000000FEF0DBF08E00EBF02E3A0E0B1E00C93DC
:1000100001D0FFCF0F930FB70F93F8945AD04FD062
:1000200004D00F910FBF0F9108950F930FB70F9347
:100030005F936F937F938F939F9377278827992759
:100040003CD066B3679530F4739566B36F7F66BB3B
:10005000723088F466B365FFF4CF019600E0009338
:10006000850000E00093840018D06A7F66BB1916F3
:1000700089F7081679F71FD00DD009D09F918F917D
:100080007F916F915F910F910FBF0F9108953B9AF0
:10009000439808953A9A429A08953A9A08B102FB11
:1000A000112712F9222724E0122712FB16F042989A
:1000B0000895429A089524D008951FD008950F936B
:1000C0000FB70F9304EC009381000F910FBF0F91B6
:1000D00008950F930FB70F931F932F93AF93BF9371
:1000E000A0E0B1E01C9123E0129FBF91AF912F914E
:1000F0001F910F910FBF0F910895579A5F98089520
:0C010000579A5F9A0895549A5C980895ED
:00000001FF
