:020000020000FC
:0200000019C025
:0400240049C057C0B8
:100034000FEF0DBF04E00EBF0FEF07B90FEF08B9C4
:1000440004D078946DD00000FECF0FB70F930F93B8
:100054001F932F93AF93BF93CF93DF9300E000934D
:10006400C50007E60093C40002E00093C00006E068
:100074000093C20008E90093C10000E1802E01E072
:10008400902E00E0A02E01E0B02EA0E1B1E0C0E08F
:10009400D1E010E100270D9309931A95E1F7CC24E0
:1000A400DF91CF91BF91AF912F911F910F910F913C
:1000B4000FBF08951091C6000FEF07B9113619F05C
:1000C400123621F0189507EF08B918950BEF08B907
:1000D40018950FB70F930F931F932F93AF93BF935D
:1000E400CF93DF93CC2069F0D4010D910093C60027
:1000F400A03220F0B13010F0A0E1B1E04D01CA947B
:1001040029F40091C1000F7D0093C100DF91CF91CC
:10011400BF91AF912F911F910F910F910FBF189520
:100124000FB70F930F931F932F93AF93BF93CF9357
:10013400DF93EF93FF93EAE7F1E0D4010591002305
:1001440049F00D93C394A032C8F3B130B8F3A0E1E1
:10015400B1E0F4CF0091C10000620093C100FF91AF
:10016400EF91DF91CF91BF91AF912F911F910F919B
:100174000F910FBF0895544553542054580D0A004D
:00000001FF
