:020000020000FC
:0200000019C025
:0400240089C0B4C01B
:100034000FEF0DBF04E00EBF0FEF07B90FEF08B9C4
:100044003FD07894CED0CC20F1F70D2D0031E9F7D4
:1000540001E427D0D5010C9124D0083229F00932CB
:1000640031F00FEF08B905C027EF28B902C02BEF14
:1000740028B906D01091C10010681093C100E3CFD5
:100084000F931F93DD2400E0A02E01E0B02E00E1C9
:10009400A0E0B1E011271D930A95E9F71F910F9194
:1000A40008951F931091C00010721123D9F3009387
:1000B400C6001091C00010721123D9F31F91089546
:1000C4000FB70F930F931F932F93AF93BF93CF93B8
:1000D400DF93EF93FF9300E00093C50007E60093DE
:1000E400C40002E00093C00006E00093C20008E9E7
:1000F4000093C10000E1802E01E0902E00E0A02ECC
:1001040001E0B02EA0E1B1E0C0E0D1E010E10027B1
:100114000D9309931A95E1F7CC24DD24FF91EF9117
:10012400DF91CF91BF91AF912F911F910F910F91BB
:100134000FBF08950F930FB70F931F932F93AF9390
:10014400BF93CF93DF93EF93FF93D5010091C60044
:100154000D93A03120F0B13010F0A0E0B1E0AA2E50
:10016400BB2ED3940D2D003128F00091C1000F77E0
:100174000093C100FF91EF91DF91CF91BF91AF91B7
:100184002F911F910F910FBF0F9118950F930FB7D8
:100194000F931F932F93AF93BF93CF93DF93EF935B
:1001A400FF93CC2069F0D4010D910093C600A032D6
:1001B40020F0B13010F0A0E1B1E04D01CA9429F46F
:1001C4000091C1000F7D0093C100FF91EF91DF9179
:1001D400CF91BF91AF912F911F910F910FBF0F91AD
:1001E40018950F930FB70F931F932F93AF93BF934C
:1001F400CF93DF93EF93FF93ECE3F2E0D401059107
:10020400002349F00D93C394A032C8F3B130B8F37E
:10021400A0E1B1E0F4CF0091C10000620093C100FD
:10022400FF91EF91DF91CF91BF91AF912F911F91EA
:100234000F910FBF0F91089550756572746F200D63
:020244000A00AE
:00000001FF
