:020000020000FC
:0200000019C025
:02002600FEC01A
:100034000FEF0DBF04E00EBF21D1B9D008D07894E2
:100044003BD08AD0009130010A3AE1F7FFCF00E0BB
:100054000093B90007E40093B80004E00093BC00E7
:10006400089504EA0093BC000091BC0007FFFCCF94
:1000740008950093BB0004E80093BC000091BC0009
:1000840007FFFCCF089504E80093BC000091BC0076
:1000940007FFFCCF0091BB00089504E90093BC0066
:1000A4000091BC0004FFFCCF08950F930FEF0A9555
:1000B4000000E9F70F9108950F930FB70F931F9363
:1000C4002F93AF93BF93CF93DF93EF93FF93A0E06E
:1000D400B1E0C7DF00EDCDDF07E0CBDF00E0C9DF33
:1000E400DCDFE3DFBEDF00EDC4DF00E0C2DFB9DF49
:1000F40001EDBFDFC8DF0F770D93C5DF0D93C3DFBD
:100104000D93C1DF0D93BFDF0D93BDDF0D93BBDFF7
:100114000D93C3DFCADF01E40D9301E40D9301E401
:100124000D9301E40D9301E40D9301E40D930DE0AF
:100134000D930AE00D9300E00D93A0E0B1E03D01C2
:10014400FF91EF91DF91CF91BF91AF912F911F91CB
:100154000F910FBF0F9108950F930FB70F931F9334
:100164002F93AF93BF93CF93DF93EF93FF93F30159
:10017400D501CC240191002349F00D93C394A032FE
:10018400C8F3B130B8F3A0E1B1E0F4CF0091C100FD
:1001940000620093C100FF91EF91DF91CF91BF9175
:1001A400AF912F911F910F910FBF0F9108950FB72A
:1001B4000F930F931F932F93AF93BF93CF93DF931B
:1001C400EF93FF9300E00093C50007E60093C4009B
:1001D40002E00093C00006E00093C20008E9009327
:1001E400C10000E1A02E01E0B02E00E2802E01E06B
:1001F400902EA0E1B1E0C0E2D1E010E100270D9320
:1002040009931A95E1F7CC24FF91EF91DF91CF91F7
:10021400BF91AF912F911F910F910F910FBF08952F
:100224000FB70F930F931F932F93AF93BF93CF9356
:10023400DF93EF93FF93CC2069F0D5010D910093E8
:10024400C600A03220F0B13010F0A0E1B1E05D01B1
:10025400CA9441F40AEA009330010091C1000F7D71
:100264000093C100FF91EF91DF91CF91BF91AF91C6
:100274002F911F910F910F910FBF18950F930FB7E7
:100284000F931F932F93AF93BF93CF93DF93EF936A
:10029400FF9300E1A0E1B1E011271D930A95E9F76E
:1002A400CC2400E1A02E01E0B02E00270093300101
:1002B400FF91EF91DF91CF91BF91AF912F911F915A
:1002C4000F910FBF0F9108951F931091C0001072EA
:1002D4001123D9F30093C6001091C00010721123AA
:1002E400D9F31F9108950F930FB70F931F932F9373
:1002F400AF93BF93CF93DF93EF93FF93E0E4F3E0E7
:10030400D5010591002349F00D93C394A032C8F39D
:10031400B130B8F3A0E1B1E0F4CF0091C1000062C4
:100324000093C100FF91EF91DF91CF91BF91AF9105
:100334002F911F910F910FBF0F91089554657374FE
:0803440020525443200D0A0071
:00000001FF
